:020000040800F2
:1000000010040020C50100081B02000813020008AC
:10001000170200080D020008190300080000000084
:10002000000000000000000000000000470200087F
:100030001102000800000000450200084902000803
:10004000DF010008DF010008DF010008DF01000810
:10005000DF010008DF010008DF010008DF01000800
:10006000DF010008DF010008DF010008DF010008F0
:10007000DF010008DF010008DF010008DF010008E0
:10008000DF010008DF010008DF010008DF010008D0
:10009000DF010008DF010008DF010008DF010008C0
:1000A000DF010008DF010008DF010008DF010008B0
:1000B000DF010008DF010008DF010008DF010008A0
:1000C000DF010008DF010008DF010008DF01000890
:1000D000DF010008DF010008DF010008DF01000880
:1000E000DF010008DF010008DF010008DF01000870
:1000F000DF010008DF010008DF010008DF01000860
:10010000DF010008DF010008DF010008DF0100084F
:10011000DF010008DF010008DF010008DF0100083F
:10012000DF010008DF010008DF010008DF0100082F
:10013000DF010008DF010008DF010008DF0100081F
:10014000DF010008DF010008DF010008DF0100080F
:10015000DF010008DF010008DF010008DF010008FF
:10016000DF010008DF010008DF010008DF010008EF
:10017000DF010008DF010008DF01000800000000C7
:10018000DF010008DF010008DF010008DF010008CF
:10019000DF010008DF010008DF01000800000000A7
:1001A000DF010008DF010008DF010008DFF810D0E0
:1001B00000F01AF80048004799040008AFF30080E7
:1001C000100400200648804706480047FEE7FEE787
:1001D000FEE7FEE7FEE7FEE7FEE7FEE7FEE7FEE7F7
:1001E00051020008AD010008064C074D06E0E0682A
:1001F00040F0010394E8070098471034AC42F6D36E
:10020000FFF7D8FF88070008A807000800BFFEE72F
:10021000704700BFFEE700BFFEE7704710B500283B
:1002200007DA0A07140E054A00F00F031B1FD45407
:1002300003E00A07130E024A135410BD18ED00E044
:1002400000E400E07047704710B500F081F810BD81
:1002500008B52D48006840F470002B4908602B4811
:10026000006840F00100294908602848083000680B
:1002700040F080002549083108600020009002E02D
:100280000098401C00904CF2503100988842F7D3FF
:100290001E480830006840F090001C490831086092
:1002A0000020009002E00098401C00904CF2503179
:1002B00000988842F7D315480830006820F0030002
:1002C00012490831086011480068114908400F4977
:1002D00008600846006820F48020086000200B4970
:1002E0000831086000BF0948083000680020002875
:1002F000F9D108480549091D0860002003490C315F
:10030000086000F015FA08BD88ED00E000380240F2
:10031000FFFFF6FE1030002400BFFEE702E008C831
:10032000121F08C1002AFAD170477047002001E06F
:1003300001C1121F002AFBD1704700000349086069
:1003400000BF024909680029FBD170470000002066
:100350000448006820B103480068401E0149086055
:1003600070470000000000200AB1816100E0816256
:100370007047F0B504460D4616462168E268002035
:1003800019E0012787401F409FB14FEA400C032727
:1003900007FA0CF7B943470005FA07F739434FEA64
:1003A000400C032707FA0CF7BA43470006FA07F791
:1003B0003A43471CB8B21028E3D32160E260F0BD95
:1003C000F0B50C461546012C03D146681E43466025
:1003D00002E046689E434660826800210DE00126E7
:1003E0008E401E403EB14F000326BE40B2434E0039
:1003F00005FA06F632434E1CB1B21029EFD38260E3
:10040000F0BD000010B540F6044000F001F90823EB
:10041000002201211C48FFF7ACFF08230122002124
:100420001948FFF7CDFF40F6034000F0F1F88023B4
:10043000002201211548FFF79CFF802301220021A3
:100440001248FFF7BDFF40F6064000F0E1F8082330
:10045000002201210E48FFF78CFF08230122002112
:100460000B48FFF7ADFF4FF4406000F0D1F82023B8
:10047000002201210748FFF77CFF202301220021F1
:100480000448FFF79DFF10BD00100240000C024021
:10049000001802400000024000F04EF9FFF7B2FFE2
:1004A00008E005480068401C0349086008460068E9
:1004B00000F05EF8F5E700000400002070B5054686
:1004C0000C46012D06D0022D0AD0032D0ED0042D8E
:1004D00018D111E0012208212148FFF745FF12E061
:1004E000012280211F48FFF73FFF0CE00122082175
:1004F0001D48FFF739FF06E0012220211B48FFF7C6
:1005000033FF00E000BF00BF002C02DD2046FFF7F4
:1005100015FF601C10B3012D06D0022D0AD0032D4B
:100520000ED0042D18D111E0002208210C48FFF74D
:100530001BFF12E0002280210A48FFF715FF0CE0A4
:10054000002208210848FFF70FFF06E000222021C3
:100550000648FFF709FF00E000BF00BF70BD0000C4
:1005600000100240000C024000180240000002404F
:1005700010B50446204604EBD0714910A4EB4101AC
:1005800021B14FF0FF310120FFF798FF04EBD47247
:10059000501000EBD0725210A0EB420222B14FF08B
:1005A000FF310220FFF78AFFE21704EB92729010EE
:1005B00000EBD0725210A0EB420222B14FF0FF319B
:1005C0000320FFF77BFFE21704EB5272D01000EB21
:1005D000D0725210A0EB420222B14FF0FF31042042
:1005E000FFF76CFF4FF4FA60FFF7A8FE002101202F
:1005F000FFF764FF00210220FFF760FF00210320C6
:10060000FFF75CFF00210420FFF758FF10BD00003A
:10061000074A02EB9011D1F8001800F01F030122E5
:100620009A401143024B03EB9012C2F80018704736
:1006300000300240002000213A4A126842F4803221
:10064000384B1A6000BF401C364A126802F4003171
:1006500019B94FF6FF729042F5D1324A126802F48E
:1006600000320AB900BFFEE72E4A4032126842F05B
:1006700080522C4B40331A602B4A126842F440429D
:10068000294B1A60274A08321268264B08331A6031
:100690001A46126842F400421A601A46126842F47E
:1006A000A0521A60214A1B1F1A601A1F126842F0DA
:1006B00080721B1F1A6000BF1A4A126802F0007293
:1006C000002AF9D0184A126842F48032164B1A6098
:1006D00000BF154A526802F48032002AF9D0124A4B
:1006E000126842F40032104B1A6000BF0E4A526882
:1006F00002F40032002AF9D00A4A0832126822F0C5
:100700000302084B08331A601A46126842F00202CC
:100710001A6000BF034A0832126802F00802002A79
:10072000F8D070470038024000700040196440095A
:1007300010B5FFF77FFF10BD10B5124800684FF4E9
:100740007A71B0FBF1F4601EB0F1807F01D301201B
:100750000FE0601E4FF0E02148610F214FF0FF30A5
:10076000FFF75CFD00204FF0E02188610720086161
:10077000002008B100BFFEE70021481EFFF74EFD34
:1007800010BD000008000020A8070008000000209D
:100790000C0000001C030008B40700080C00002037
:1007A000040400002C03000800000000000000000A
:0407B00000C2EB0B8D
:04000005080001AD41
:00000001FF
